{
  "_format": "hh-sol-artifact-1",
  "contractName": "LoyaltyToken",
  "sourceName": "contracts/core/LoyaltyToken.sol",
  "abi": [
    {
      "inputs": [
        {
          "internalType": "address",
          "name": "defaultAdmin",
          "type": "address"
        }
      ],
      "stateMutability": "nonpayable",
      "type": "constructor"
    },
    {
      "inputs": [],
      "name": "AccessControlBadConfirmation",
      "type": "error"
    },
    {
      "inputs": [
        {
          "internalType": "address",
          "name": "account",
          "type": "address"
        },
        {
          "internalType": "bytes32",
          "name": "neededRole",
          "type": "bytes32"
        }
      ],
      "name": "AccessControlUnauthorizedAccount",
      "type": "error"
    },
    {
      "inputs": [],
      "name": "ERC721EnumerableForbiddenBatchMint",
      "type": "error"
    },
    {
      "inputs": [
        {
          "internalType": "address",
          "name": "sender",
          "type": "address"
        },
        {
          "internalType": "uint256",
          "name": "tokenId",
          "type": "uint256"
        },
        {
          "internalType": "address",
          "name": "owner",
          "type": "address"
        }
      ],
      "name": "ERC721IncorrectOwner",
      "type": "error"
    },
    {
      "inputs": [
        {
          "internalType": "address",
          "name": "operator",
          "type": "address"
        },
        {
          "internalType": "uint256",
          "name": "tokenId",
          "type": "uint256"
        }
      ],
      "name": "ERC721InsufficientApproval",
      "type": "error"
    },
    {
      "inputs": [
        {
          "internalType": "address",
          "name": "approver",
          "type": "address"
        }
      ],
      "name": "ERC721InvalidApprover",
      "type": "error"
    },
    {
      "inputs": [
        {
          "internalType": "address",
          "name": "operator",
          "type": "address"
        }
      ],
      "name": "ERC721InvalidOperator",
      "type": "error"
    },
    {
      "inputs": [
        {
          "internalType": "address",
          "name": "owner",
          "type": "address"
        }
      ],
      "name": "ERC721InvalidOwner",
      "type": "error"
    },
    {
      "inputs": [
        {
          "internalType": "address",
          "name": "receiver",
          "type": "address"
        }
      ],
      "name": "ERC721InvalidReceiver",
      "type": "error"
    },
    {
      "inputs": [
        {
          "internalType": "address",
          "name": "sender",
          "type": "address"
        }
      ],
      "name": "ERC721InvalidSender",
      "type": "error"
    },
    {
      "inputs": [
        {
          "internalType": "uint256",
          "name": "tokenId",
          "type": "uint256"
        }
      ],
      "name": "ERC721NonexistentToken",
      "type": "error"
    },
    {
      "inputs": [
        {
          "internalType": "address",
          "name": "owner",
          "type": "address"
        },
        {
          "internalType": "uint256",
          "name": "index",
          "type": "uint256"
        }
      ],
      "name": "ERC721OutOfBoundsIndex",
      "type": "error"
    },
    {
      "inputs": [],
      "name": "InvalidNumberOfAttributes",
      "type": "error"
    },
    {
      "inputs": [],
      "name": "TraitValueUnchanged",
      "type": "error"
    },
    {
      "anonymous": false,
      "inputs": [
        {
          "indexed": true,
          "internalType": "address",
          "name": "owner",
          "type": "address"
        },
        {
          "indexed": true,
          "internalType": "address",
          "name": "approved",
          "type": "address"
        },
        {
          "indexed": true,
          "internalType": "uint256",
          "name": "tokenId",
          "type": "uint256"
        }
      ],
      "name": "Approval",
      "type": "event"
    },
    {
      "anonymous": false,
      "inputs": [
        {
          "indexed": true,
          "internalType": "address",
          "name": "owner",
          "type": "address"
        },
        {
          "indexed": true,
          "internalType": "address",
          "name": "operator",
          "type": "address"
        },
        {
          "indexed": false,
          "internalType": "bool",
          "name": "approved",
          "type": "bool"
        }
      ],
      "name": "ApprovalForAll",
      "type": "event"
    },
    {
      "anonymous": false,
      "inputs": [
        {
          "indexed": false,
          "internalType": "uint256",
          "name": "_fromTokenId",
          "type": "uint256"
        },
        {
          "indexed": false,
          "internalType": "uint256",
          "name": "_toTokenId",
          "type": "uint256"
        }
      ],
      "name": "BatchMetadataUpdate",
      "type": "event"
    },
    {
      "anonymous": false,
      "inputs": [
        {
          "indexed": false,
          "internalType": "uint256",
          "name": "_tokenId",
          "type": "uint256"
        }
      ],
      "name": "MetadataUpdate",
      "type": "event"
    },
    {
      "anonymous": false,
      "inputs": [
        {
          "indexed": true,
          "internalType": "bytes32",
          "name": "role",
          "type": "bytes32"
        },
        {
          "indexed": true,
          "internalType": "bytes32",
          "name": "previousAdminRole",
          "type": "bytes32"
        },
        {
          "indexed": true,
          "internalType": "bytes32",
          "name": "newAdminRole",
          "type": "bytes32"
        }
      ],
      "name": "RoleAdminChanged",
      "type": "event"
    },
    {
      "anonymous": false,
      "inputs": [
        {
          "indexed": true,
          "internalType": "bytes32",
          "name": "role",
          "type": "bytes32"
        },
        {
          "indexed": true,
          "internalType": "address",
          "name": "account",
          "type": "address"
        },
        {
          "indexed": true,
          "internalType": "address",
          "name": "sender",
          "type": "address"
        }
      ],
      "name": "RoleGranted",
      "type": "event"
    },
    {
      "anonymous": false,
      "inputs": [
        {
          "indexed": true,
          "internalType": "bytes32",
          "name": "role",
          "type": "bytes32"
        },
        {
          "indexed": true,
          "internalType": "address",
          "name": "account",
          "type": "address"
        },
        {
          "indexed": true,
          "internalType": "address",
          "name": "sender",
          "type": "address"
        }
      ],
      "name": "RoleRevoked",
      "type": "event"
    },
    {
      "anonymous": false,
      "inputs": [],
      "name": "TraitMetadataURIUpdated",
      "type": "event"
    },
    {
      "anonymous": false,
      "inputs": [
        {
          "indexed": true,
          "internalType": "bytes32",
          "name": "traitKey",
          "type": "bytes32"
        },
        {
          "indexed": false,
          "internalType": "uint256",
          "name": "tokenId",
          "type": "uint256"
        },
        {
          "indexed": false,
          "internalType": "bytes32",
          "name": "traitValue",
          "type": "bytes32"
        }
      ],
      "name": "TraitUpdated",
      "type": "event"
    },
    {
      "anonymous": false,
      "inputs": [
        {
          "indexed": true,
          "internalType": "bytes32",
          "name": "traitKey",
          "type": "bytes32"
        },
        {
          "indexed": false,
          "internalType": "uint256[]",
          "name": "tokenIds",
          "type": "uint256[]"
        }
      ],
      "name": "TraitUpdatedList",
      "type": "event"
    },
    {
      "anonymous": false,
      "inputs": [
        {
          "indexed": true,
          "internalType": "bytes32",
          "name": "traitKey",
          "type": "bytes32"
        },
        {
          "indexed": false,
          "internalType": "uint256[]",
          "name": "tokenIds",
          "type": "uint256[]"
        },
        {
          "indexed": false,
          "internalType": "bytes32",
          "name": "traitValue",
          "type": "bytes32"
        }
      ],
      "name": "TraitUpdatedListUniformValue",
      "type": "event"
    },
    {
      "anonymous": false,
      "inputs": [
        {
          "indexed": true,
          "internalType": "bytes32",
          "name": "traitKey",
          "type": "bytes32"
        },
        {
          "indexed": false,
          "internalType": "uint256",
          "name": "fromTokenId",
          "type": "uint256"
        },
        {
          "indexed": false,
          "internalType": "uint256",
          "name": "toTokenId",
          "type": "uint256"
        }
      ],
      "name": "TraitUpdatedRange",
      "type": "event"
    },
    {
      "anonymous": false,
      "inputs": [
        {
          "indexed": true,
          "internalType": "bytes32",
          "name": "traitKey",
          "type": "bytes32"
        },
        {
          "indexed": false,
          "internalType": "uint256",
          "name": "fromTokenId",
          "type": "uint256"
        },
        {
          "indexed": false,
          "internalType": "uint256",
          "name": "toTokenId",
          "type": "uint256"
        },
        {
          "indexed": false,
          "internalType": "bytes32",
          "name": "traitValue",
          "type": "bytes32"
        }
      ],
      "name": "TraitUpdatedRangeUniformValue",
      "type": "event"
    },
    {
      "anonymous": false,
      "inputs": [
        {
          "indexed": true,
          "internalType": "address",
          "name": "from",
          "type": "address"
        },
        {
          "indexed": true,
          "internalType": "address",
          "name": "to",
          "type": "address"
        },
        {
          "indexed": true,
          "internalType": "uint256",
          "name": "tokenId",
          "type": "uint256"
        }
      ],
      "name": "Transfer",
      "type": "event"
    },
    {
      "inputs": [],
      "name": "DEFAULT_ADMIN_ROLE",
      "outputs": [
        {
          "internalType": "bytes32",
          "name": "",
          "type": "bytes32"
        }
      ],
      "stateMutability": "view",
      "type": "function"
    },
    {
      "inputs": [],
      "name": "MINTER_ROLE",
      "outputs": [
        {
          "internalType": "bytes32",
          "name": "",
          "type": "bytes32"
        }
      ],
      "stateMutability": "view",
      "type": "function"
    },
    {
      "inputs": [
        {
          "internalType": "address",
          "name": "to",
          "type": "address"
        },
        {
          "internalType": "uint256",
          "name": "tokenId",
          "type": "uint256"
        }
      ],
      "name": "approve",
      "outputs": [],
      "stateMutability": "nonpayable",
      "type": "function"
    },
    {
      "inputs": [
        {
          "internalType": "address",
          "name": "owner",
          "type": "address"
        }
      ],
      "name": "balanceOf",
      "outputs": [
        {
          "internalType": "uint256",
          "name": "",
          "type": "uint256"
        }
      ],
      "stateMutability": "view",
      "type": "function"
    },
    {
      "inputs": [
        {
          "internalType": "uint256",
          "name": "tokenId",
          "type": "uint256"
        }
      ],
      "name": "getApproved",
      "outputs": [
        {
          "internalType": "address",
          "name": "",
          "type": "address"
        }
      ],
      "stateMutability": "view",
      "type": "function"
    },
    {
      "inputs": [
        {
          "internalType": "bytes32",
          "name": "role",
          "type": "bytes32"
        }
      ],
      "name": "getRoleAdmin",
      "outputs": [
        {
          "internalType": "bytes32",
          "name": "",
          "type": "bytes32"
        }
      ],
      "stateMutability": "view",
      "type": "function"
    },
    {
      "inputs": [],
      "name": "getTokenAttributes",
      "outputs": [
        {
          "internalType": "bytes32[]",
          "name": "attributes",
          "type": "bytes32[]"
        }
      ],
      "stateMutability": "view",
      "type": "function"
    },
    {
      "inputs": [],
      "name": "getTraitMetadataURI",
      "outputs": [
        {
          "internalType": "string",
          "name": "labelsURI",
          "type": "string"
        }
      ],
      "stateMutability": "view",
      "type": "function"
    },
    {
      "inputs": [
        {
          "internalType": "uint256",
          "name": "tokenId",
          "type": "uint256"
        },
        {
          "internalType": "bytes32",
          "name": "traitKey",
          "type": "bytes32"
        }
      ],
      "name": "getTraitValue",
      "outputs": [
        {
          "internalType": "bytes32",
          "name": "traitValue",
          "type": "bytes32"
        }
      ],
      "stateMutability": "view",
      "type": "function"
    },
    {
      "inputs": [
        {
          "internalType": "uint256",
          "name": "tokenId",
          "type": "uint256"
        },
        {
          "internalType": "bytes32[]",
          "name": "traitKeys",
          "type": "bytes32[]"
        }
      ],
      "name": "getTraitValues",
      "outputs": [
        {
          "internalType": "bytes32[]",
          "name": "traitValues",
          "type": "bytes32[]"
        }
      ],
      "stateMutability": "view",
      "type": "function"
    },
    {
      "inputs": [
        {
          "internalType": "address",
          "name": "minter",
          "type": "address"
        }
      ],
      "name": "grantMintRole",
      "outputs": [],
      "stateMutability": "nonpayable",
      "type": "function"
    },
    {
      "inputs": [
        {
          "internalType": "bytes32",
          "name": "role",
          "type": "bytes32"
        },
        {
          "internalType": "address",
          "name": "account",
          "type": "address"
        }
      ],
      "name": "grantRole",
      "outputs": [],
      "stateMutability": "nonpayable",
      "type": "function"
    },
    {
      "inputs": [
        {
          "internalType": "bytes32",
          "name": "role",
          "type": "bytes32"
        },
        {
          "internalType": "address",
          "name": "account",
          "type": "address"
        }
      ],
      "name": "hasRole",
      "outputs": [
        {
          "internalType": "bool",
          "name": "",
          "type": "bool"
        }
      ],
      "stateMutability": "view",
      "type": "function"
    },
    {
      "inputs": [
        {
          "internalType": "address",
          "name": "owner",
          "type": "address"
        },
        {
          "internalType": "address",
          "name": "operator",
          "type": "address"
        }
      ],
      "name": "isApprovedForAll",
      "outputs": [
        {
          "internalType": "bool",
          "name": "",
          "type": "bool"
        }
      ],
      "stateMutability": "view",
      "type": "function"
    },
    {
      "inputs": [],
      "name": "name",
      "outputs": [
        {
          "internalType": "string",
          "name": "",
          "type": "string"
        }
      ],
      "stateMutability": "view",
      "type": "function"
    },
    {
      "inputs": [
        {
          "internalType": "uint256",
          "name": "tokenId",
          "type": "uint256"
        }
      ],
      "name": "ownerOf",
      "outputs": [
        {
          "internalType": "address",
          "name": "",
          "type": "address"
        }
      ],
      "stateMutability": "view",
      "type": "function"
    },
    {
      "inputs": [
        {
          "internalType": "bytes32",
          "name": "role",
          "type": "bytes32"
        },
        {
          "internalType": "address",
          "name": "callerConfirmation",
          "type": "address"
        }
      ],
      "name": "renounceRole",
      "outputs": [],
      "stateMutability": "nonpayable",
      "type": "function"
    },
    {
      "inputs": [
        {
          "internalType": "bytes32",
          "name": "role",
          "type": "bytes32"
        },
        {
          "internalType": "address",
          "name": "account",
          "type": "address"
        }
      ],
      "name": "revokeRole",
      "outputs": [],
      "stateMutability": "nonpayable",
      "type": "function"
    },
    {
      "inputs": [
        {
          "internalType": "address",
          "name": "to",
          "type": "address"
        },
        {
          "internalType": "bytes32[]",
          "name": "attributeValues",
          "type": "bytes32[]"
        }
      ],
      "name": "safeMint",
      "outputs": [],
      "stateMutability": "nonpayable",
      "type": "function"
    },
    {
      "inputs": [
        {
          "internalType": "address",
          "name": "from",
          "type": "address"
        },
        {
          "internalType": "address",
          "name": "to",
          "type": "address"
        },
        {
          "internalType": "uint256",
          "name": "tokenId",
          "type": "uint256"
        }
      ],
      "name": "safeTransferFrom",
      "outputs": [],
      "stateMutability": "nonpayable",
      "type": "function"
    },
    {
      "inputs": [
        {
          "internalType": "address",
          "name": "from",
          "type": "address"
        },
        {
          "internalType": "address",
          "name": "to",
          "type": "address"
        },
        {
          "internalType": "uint256",
          "name": "tokenId",
          "type": "uint256"
        },
        {
          "internalType": "bytes",
          "name": "data",
          "type": "bytes"
        }
      ],
      "name": "safeTransferFrom",
      "outputs": [],
      "stateMutability": "nonpayable",
      "type": "function"
    },
    {
      "inputs": [
        {
          "internalType": "address",
          "name": "operator",
          "type": "address"
        },
        {
          "internalType": "bool",
          "name": "approved",
          "type": "bool"
        }
      ],
      "name": "setApprovalForAll",
      "outputs": [],
      "stateMutability": "nonpayable",
      "type": "function"
    },
    {
      "inputs": [
        {
          "internalType": "uint256",
          "name": "tokenId",
          "type": "uint256"
        },
        {
          "internalType": "bytes32",
          "name": "traitKey",
          "type": "bytes32"
        },
        {
          "internalType": "bytes32",
          "name": "newValue",
          "type": "bytes32"
        }
      ],
      "name": "setTrait",
      "outputs": [],
      "stateMutability": "nonpayable",
      "type": "function"
    },
    {
      "inputs": [
        {
          "internalType": "bytes4",
          "name": "interfaceId",
          "type": "bytes4"
        }
      ],
      "name": "supportsInterface",
      "outputs": [
        {
          "internalType": "bool",
          "name": "",
          "type": "bool"
        }
      ],
      "stateMutability": "view",
      "type": "function"
    },
    {
      "inputs": [],
      "name": "symbol",
      "outputs": [
        {
          "internalType": "string",
          "name": "",
          "type": "string"
        }
      ],
      "stateMutability": "view",
      "type": "function"
    },
    {
      "inputs": [
        {
          "internalType": "uint256",
          "name": "index",
          "type": "uint256"
        }
      ],
      "name": "tokenByIndex",
      "outputs": [
        {
          "internalType": "uint256",
          "name": "",
          "type": "uint256"
        }
      ],
      "stateMutability": "view",
      "type": "function"
    },
    {
      "inputs": [
        {
          "internalType": "address",
          "name": "owner",
          "type": "address"
        },
        {
          "internalType": "uint256",
          "name": "index",
          "type": "uint256"
        }
      ],
      "name": "tokenOfOwnerByIndex",
      "outputs": [
        {
          "internalType": "uint256",
          "name": "",
          "type": "uint256"
        }
      ],
      "stateMutability": "view",
      "type": "function"
    },
    {
      "inputs": [
        {
          "internalType": "uint256",
          "name": "tokenId",
          "type": "uint256"
        }
      ],
      "name": "tokenURI",
      "outputs": [
        {
          "internalType": "string",
          "name": "",
          "type": "string"
        }
      ],
      "stateMutability": "view",
      "type": "function"
    },
    {
      "inputs": [],
      "name": "totalSupply",
      "outputs": [
        {
          "internalType": "uint256",
          "name": "",
          "type": "uint256"
        }
      ],
      "stateMutability": "view",
      "type": "function"
    },
    {
      "inputs": [
        {
          "internalType": "address",
          "name": "from",
          "type": "address"
        },
        {
          "internalType": "address",
          "name": "to",
          "type": "address"
        },
        {
          "internalType": "uint256",
          "name": "tokenId",
          "type": "uint256"
        }
      ],
      "name": "transferFrom",
      "outputs": [],
      "stateMutability": "nonpayable",
      "type": "function"
    }
  ],
  "bytecode": "0x608060405234801561001057600080fd5b506040516143d03803806143d083398181016040528101906100329190610424565b806040518060400160405280600c81526020017f4c6f79616c7479546f6b656e00000000000000000000000000000000000000008152506040518060400160405280600581526020017f546f6b656e000000000000000000000000000000000000000000000000000000815250818181600090816100b091906106a1565b5080600190816100c091906106a1565b5050506100d66000801b846101cc60201b60201c565b505050506000600267ffffffffffffffff8111156100f7576100f661045c565b5b6040519080825280602002602001820160405280156101255781602001602082028036833780820191505090505b509050604051602001610137906107ca565b60405160208183030381529060405261014f90610819565b8160008151811061016357610162610880565b5b60200260200101818152505060405160200161017e906108fb565b60405160208183030381529060405261019690610819565b816001815181106101aa576101a9610880565b5b6020026020010181815250506101c5816102ca60201b60201c565b5050610910565b60006101de83836102e460201b60201c565b6102bf576001600b600085815260200190815260200160002060000160008473ffffffffffffffffffffffffffffffffffffffff1673ffffffffffffffffffffffffffffffffffffffff16815260200190815260200160002060006101000a81548160ff02191690831515021790555061025c61034f60201b60201c565b73ffffffffffffffffffffffffffffffffffffffff168273ffffffffffffffffffffffffffffffffffffffff16847f2f8788117e7eff1d82e926ec794901d17c78024a50270940304540a733656f0d60405160405180910390a4600190506102c4565b600090505b92915050565b80600e90805190602001906102e0929190610357565b5050565b6000600b600084815260200190815260200160002060000160008373ffffffffffffffffffffffffffffffffffffffff1673ffffffffffffffffffffffffffffffffffffffff16815260200190815260200160002060009054906101000a900460ff16905092915050565b600033905090565b828054828255906000526020600020908101928215610393579160200282015b82811115610392578251825591602001919060010190610377565b5b5090506103a091906103a4565b5090565b5b808211156103bd5760008160009055506001016103a5565b5090565b600080fd5b600073ffffffffffffffffffffffffffffffffffffffff82169050919050565b60006103f1826103c6565b9050919050565b610401816103e6565b811461040c57600080fd5b50565b60008151905061041e816103f8565b92915050565b60006020828403121561043a576104396103c1565b5b60006104488482850161040f565b91505092915050565b600081519050919050565b7f4e487b7100000000000000000000000000000000000000000000000000000000600052604160045260246000fd5b7f4e487b7100000000000000000000000000000000000000000000000000000000600052602260045260246000fd5b600060028204905060018216806104d257607f821691505b6020821081036104e5576104e461048b565b5b50919050565b60008190508160005260206000209050919050565b60006020601f8301049050919050565b600082821b905092915050565b60006008830261054d7fffffffffffffffffffffffffffffffffffffffffffffffffffffffffffffffff82610510565b6105578683610510565b95508019841693508086168417925050509392505050565b6000819050919050565b6000819050919050565b600061059e6105996105948461056f565b610579565b61056f565b9050919050565b6000819050919050565b6105b883610583565b6105cc6105c4826105a5565b84845461051d565b825550505050565b600090565b6105e16105d4565b6105ec8184846105af565b505050565b5b81811015610610576106056000826105d9565b6001810190506105f2565b5050565b601f82111561065557610626816104eb565b61062f84610500565b8101602085101561063e578190505b61065261064a85610500565b8301826105f1565b50505b505050565b600082821c905092915050565b60006106786000198460080261065a565b1980831691505092915050565b60006106918383610667565b9150826002028217905092915050565b6106aa82610451565b67ffffffffffffffff8111156106c3576106c261045c565b5b6106cd82546104ba565b6106d8828285610614565b600060209050601f83116001811461070b57600084156106f9578287015190505b6107038582610685565b86555061076b565b601f198416610719866104eb565b60005b828110156107415784890151825560018201915060208501945060208101905061071c565b8683101561075e578489015161075a601f891682610667565b8355505b6001600288020188555050505b505050505050565b600081905092915050565b7f4e616d6500000000000000000000000000000000000000000000000000000000600082015250565b60006107b4600483610773565b91506107bf8261077e565b600482019050919050565b60006107d5826107a7565b9150819050919050565b600081519050919050565b6000819050602082019050919050565b6000819050919050565b600061081082516107fa565b80915050919050565b6000610824826107df565b8261082e846107ea565b905061083981610804565b92506020821015610879576108747fffffffffffffffffffffffffffffffffffffffffffffffffffffffffffffffff83602003600802610510565b831692505b5050919050565b7f4e487b7100000000000000000000000000000000000000000000000000000000600052603260045260246000fd5b7f506f696e74730000000000000000000000000000000000000000000000000000600082015250565b60006108e5600683610773565b91506108f0826108af565b600682019050919050565b6000610906826108d8565b9150819050919050565b613ab18061091f6000396000f3fe608060405234801561001057600080fd5b50600436106101da5760003560e01c80636352211e11610104578063b88d4fde116100a2578063d547741f11610071578063d547741f1461058b578063de475bf9146105a7578063e985e9c5146105c5578063f80ecba3146105f5576101da565b8063b88d4fde14610505578063c2e3273d14610521578063c87b56dd1461053d578063d53913931461056d576101da565b806395d89b41116100de57806395d89b411461047d578063a217fddf1461049b578063a22cb465146104b9578063a28eec87146104d5576101da565b80636352211e146103ed57806370a082311461041d57806391d148541461044d576101da565b80632bf453e31161017c57806336568abe1161014b57806336568abe1461036757806342842e0e146103835780634f6ccce71461039f5780635a251db9146103cf576101da565b80632bf453e3146102e35780632f2ff15d146102ff5780632f745c591461031b578063312237cd1461034b576101da565b8063095ea7b3116101b8578063095ea7b31461025d57806318160ddd1461027957806323b872dd14610297578063248a9ca3146102b3576101da565b806301ffc9a7146101df57806306fdde031461020f578063081812fc1461022d575b600080fd5b6101f960048036038101906101f491906129e8565b610625565b6040516102069190612a30565b60405180910390f35b610217610637565b6040516102249190612adb565b60405180910390f35b61024760048036038101906102429190612b33565b6106c9565b6040516102549190612ba1565b60405180910390f35b61027760048036038101906102729190612be8565b6106e5565b005b6102816106fb565b60405161028e9190612c37565b60405180910390f35b6102b160048036038101906102ac9190612c52565b610708565b005b6102cd60048036038101906102c89190612cdb565b61080a565b6040516102da9190612d17565b60405180910390f35b6102fd60048036038101906102f89190612d32565b61082a565b005b61031960048036038101906103149190612d85565b6108e0565b005b61033560048036038101906103309190612be8565b610902565b6040516103429190612c37565b60405180910390f35b61036560048036038101906103609190612f0d565b6109ab565b005b610381600480360381019061037c9190612d85565b610a13565b005b61039d60048036038101906103989190612c52565b610a8e565b005b6103b960048036038101906103b49190612b33565b610aae565b6040516103c69190612c37565b60405180910390f35b6103d7610b24565b6040516103e49190613027565b60405180910390f35b61040760048036038101906104029190612b33565b610b7c565b6040516104149190612ba1565b60405180910390f35b61043760048036038101906104329190613049565b610b8e565b6040516104449190612c37565b60405180910390f35b61046760048036038101906104629190612d85565b610c48565b6040516104749190612a30565b60405180910390f35b610485610cb3565b6040516104929190612adb565b60405180910390f35b6104a3610d45565b6040516104b09190612d17565b60405180910390f35b6104d360048036038101906104ce91906130a2565b610d4c565b005b6104ef60048036038101906104ea91906130e2565b610d62565b6040516104fc9190612d17565b60405180910390f35b61051f600480360381019061051a91906131d7565b610d91565b005b61053b60048036038101906105369190613049565b610db6565b005b61055760048036038101906105529190612b33565b610df2565b6040516105649190612adb565b60405180910390f35b610575610e04565b6040516105829190612d17565b60405180910390f35b6105a560048036038101906105a09190612d85565b610e28565b005b6105af610e4a565b6040516105bc9190612adb565b60405180910390f35b6105df60048036038101906105da919061325a565b610e6a565b6040516105ec9190612a30565b60405180910390f35b61060f600480360381019061060a91906132f5565b610efe565b60405161061c9190613027565b60405180910390f35b600061063082610fba565b9050919050565b60606000805461064690613384565b80601f016020809104026020016040519081016040528092919081815260200182805461067290613384565b80156106bf5780601f10610694576101008083540402835291602001916106bf565b820191906000526020600020905b8154815290600101906020018083116106a257829003601f168201915b5050505050905090565b60006106d482611014565b506106de8261109c565b9050919050565b6106f782826106f26110d9565b6110e1565b5050565b6000600880549050905090565b600073ffffffffffffffffffffffffffffffffffffffff168273ffffffffffffffffffffffffffffffffffffffff160361077a5760006040517f64a0ae920000000000000000000000000000000000000000000000000000000081526004016107719190612ba1565b60405180910390fd5b600061078e83836107896110d9565b6110f3565b90508373ffffffffffffffffffffffffffffffffffffffff168173ffffffffffffffffffffffffffffffffffffffff1614610804578382826040517f64283d7b0000000000000000000000000000000000000000000000000000000081526004016107fb939291906133b5565b60405180910390fd5b50505050565b6000600b6000838152602001908152602001600020600101549050919050565b6000600f6000858152602001908152602001600020600084815260200190815260200160002054905081810361088c576040517fc37ca37500000000000000000000000000000000000000000000000000000000815260040160405180910390fd5b610897848484611109565b6108a084611137565b827f8386f3b08e49490d0c5a9d2c401c091f13b01a17d75ce4a2f0f8f923b410ff7d85846040516108d29291906133ec565b60405180910390a250505050565b6108e98261080a565b6108f2816111b1565b6108fc83836111c5565b50505050565b600061090d83610b8e565b82106109525782826040517fa57d13dc000000000000000000000000000000000000000000000000000000008152600401610949929190613415565b60405180910390fd5b600660008473ffffffffffffffffffffffffffffffffffffffff1673ffffffffffffffffffffffffffffffffffffffff168152602001908152602001600020600083815260200190815260200160002054905092915050565b7f9f2df0fed2c77648de5860a4cc508cd0818c85b8b8a1ab4ceeef8d981c8956a66109d5816111b1565b6000600c60008154809291906109ea9061346d565b9190505590506109fa84826112b7565b610a0481846112d5565b610a0d81611137565b50505050565b610a1b6110d9565b73ffffffffffffffffffffffffffffffffffffffff168173ffffffffffffffffffffffffffffffffffffffff1614610a7f576040517f6697b23200000000000000000000000000000000000000000000000000000000815260040160405180910390fd5b610a898282611379565b505050565b610aa983838360405180602001604052806000815250610d91565b505050565b6000610ab86106fb565b8210610afe576000826040517fa57d13dc000000000000000000000000000000000000000000000000000000008152600401610af5929190613415565b60405180910390fd5b60088281548110610b1257610b116134b5565b5b90600052602060002001549050919050565b6060600e805480602002602001604051908101604052809291908181526020018280548015610b7257602002820191906000526020600020905b815481526020019060010190808311610b5e575b5050505050905090565b6000610b8782611014565b9050919050565b60008073ffffffffffffffffffffffffffffffffffffffff168273ffffffffffffffffffffffffffffffffffffffff1603610c015760006040517f89c62b64000000000000000000000000000000000000000000000000000000008152600401610bf89190612ba1565b60405180910390fd5b600360008373ffffffffffffffffffffffffffffffffffffffff1673ffffffffffffffffffffffffffffffffffffffff168152602001908152602001600020549050919050565b6000600b600084815260200190815260200160002060000160008373ffffffffffffffffffffffffffffffffffffffff1673ffffffffffffffffffffffffffffffffffffffff16815260200190815260200160002060009054906101000a900460ff16905092915050565b606060018054610cc290613384565b80601f0160208091040260200160405190810160405280929190818152602001828054610cee90613384565b8015610d3b5780601f10610d1057610100808354040283529160200191610d3b565b820191906000526020600020905b815481529060010190602001808311610d1e57829003601f168201915b5050505050905090565b6000801b81565b610d5e610d576110d9565b838361146c565b5050565b6000600f6000848152602001908152602001600020600083815260200190815260200160002054905092915050565b610d9c848484610708565b610db0610da76110d9565b858585856115db565b50505050565b6000801b610dc3816111b1565b610ded7f9f2df0fed2c77648de5860a4cc508cd0818c85b8b8a1ab4ceeef8d981c8956a6836111c5565b505050565b6060610dfd8261178c565b9050919050565b7f9f2df0fed2c77648de5860a4cc508cd0818c85b8b8a1ab4ceeef8d981c8956a681565b610e318261080a565b610e3a816111b1565b610e448383611379565b50505050565b6060604051806080016040528060568152602001613a2660569139905090565b6000600560008473ffffffffffffffffffffffffffffffffffffffff1673ffffffffffffffffffffffffffffffffffffffff16815260200190815260200160002060008373ffffffffffffffffffffffffffffffffffffffff1673ffffffffffffffffffffffffffffffffffffffff16815260200190815260200160002060009054906101000a900460ff16905092915050565b606060008383905090508067ffffffffffffffff811115610f2257610f21612dca565b5b604051908082528060200260200182016040528015610f505781602001602082028036833780820191505090505b50915060005b81811015610fb1576000858583818110610f7357610f726134b5565b5b905060200201359050610f868782610d62565b848381518110610f9957610f986134b5565b5b60200260200101818152505081600101915050610f56565b50509392505050565b6000807bffffffffffffffffffffffffffffffffffffffffffffffffffffffff1916827bffffffffffffffffffffffffffffffffffffffffffffffffffffffff1916148061100d575061100c8261189f565b5b9050919050565b60008061102083611919565b9050600073ffffffffffffffffffffffffffffffffffffffff168173ffffffffffffffffffffffffffffffffffffffff160361109357826040517f7e27328900000000000000000000000000000000000000000000000000000000815260040161108a9190612c37565b60405180910390fd5b80915050919050565b60006004600083815260200190815260200160002060009054906101000a900473ffffffffffffffffffffffffffffffffffffffff169050919050565b600033905090565b6110ee8383836001611956565b505050565b6000611100848484611b1b565b90509392505050565b80600f6000858152602001908152602001600020600084815260200190815260200160002081905550505050565b600d6000828152602001908152602001600020600081548092919061115b9061346d565b91905055506111ae8161116d83611c38565b611189600d600086815260200190815260200160002054611c38565b60405160200161119a92919061356c565b604051602081830303815290604052611d06565b50565b6111c2816111bd6110d9565b611d62565b50565b60006111d18383610c48565b6112ac576001600b600085815260200190815260200160002060000160008473ffffffffffffffffffffffffffffffffffffffff1673ffffffffffffffffffffffffffffffffffffffff16815260200190815260200160002060006101000a81548160ff0219169083151502179055506112496110d9565b73ffffffffffffffffffffffffffffffffffffffff168273ffffffffffffffffffffffffffffffffffffffff16847f2f8788117e7eff1d82e926ec794901d17c78024a50270940304540a733656f0d60405160405180910390a4600190506112b1565b600090505b92915050565b6112d1828260405180602001604052806000815250611db3565b5050565b600e80549050815114611314576040517f46fd811400000000000000000000000000000000000000000000000000000000815260040160405180910390fd5b60005b600e805490508110156113745761136783600e838154811061133c5761133b6134b5565b5b906000526020600020015484848151811061135a576113596134b5565b5b602002602001015161082a565b8080600101915050611317565b505050565b60006113858383610c48565b15611461576000600b600085815260200190815260200160002060000160008473ffffffffffffffffffffffffffffffffffffffff1673ffffffffffffffffffffffffffffffffffffffff16815260200190815260200160002060006101000a81548160ff0219169083151502179055506113fe6110d9565b73ffffffffffffffffffffffffffffffffffffffff168273ffffffffffffffffffffffffffffffffffffffff16847ff6391f5c32d9c69d2a47ea670b442974b53935d1edc7fd64eb21e047a839171b60405160405180910390a460019050611466565b600090505b92915050565b600073ffffffffffffffffffffffffffffffffffffffff168273ffffffffffffffffffffffffffffffffffffffff16036114dd57816040517f5b08ba180000000000000000000000000000000000000000000000000000000081526004016114d49190612ba1565b60405180910390fd5b80600560008573ffffffffffffffffffffffffffffffffffffffff1673ffffffffffffffffffffffffffffffffffffffff16815260200190815260200160002060008473ffffffffffffffffffffffffffffffffffffffff1673ffffffffffffffffffffffffffffffffffffffff16815260200190815260200160002060006101000a81548160ff0219169083151502179055508173ffffffffffffffffffffffffffffffffffffffff168373ffffffffffffffffffffffffffffffffffffffff167f17307eab39ab6107e8899845ad3d59bd9653f200f220920489ca2b5937696c31836040516115ce9190612a30565b60405180910390a3505050565b60008373ffffffffffffffffffffffffffffffffffffffff163b1115611785578273ffffffffffffffffffffffffffffffffffffffff1663150b7a02868685856040518563ffffffff1660e01b815260040161163a94939291906135f0565b6020604051808303816000875af192505050801561167657506040513d601f19601f820116820180604052508101906116739190613651565b60015b6116fa573d80600081146116a6576040519150601f19603f3d011682016040523d82523d6000602084013e6116ab565b606091505b5060008151036116f257836040517f64a0ae920000000000000000000000000000000000000000000000000000000081526004016116e99190612ba1565b60405180910390fd5b805181602001fd5b63150b7a0260e01b7bffffffffffffffffffffffffffffffffffffffffffffffffffffffff1916817bffffffffffffffffffffffffffffffffffffffffffffffffffffffff19161461178357836040517f64a0ae9200000000000000000000000000000000000000000000000000000000815260040161177a9190612ba1565b60405180910390fd5b505b5050505050565b606061179782611014565b506000600a600084815260200190815260200160002080546117b890613384565b80601f01602080910402602001604051908101604052809291908181526020018280546117e490613384565b80156118315780601f1061180657610100808354040283529160200191611831565b820191906000526020600020905b81548152906001019060200180831161181457829003601f168201915b505050505090506000611842611dd7565b9050600081510361185757819250505061189a565b60008251111561188c57808260405160200161187492919061367e565b6040516020818303038152906040529250505061189a565b61189584611df7565b925050505b919050565b60006118aa82611e60565b8061191257507faf332f3e000000000000000000000000000000000000000000000000000000007bffffffffffffffffffffffffffffffffffffffffffffffffffffffff1916827bffffffffffffffffffffffffffffffffffffffffffffffffffffffff1916145b9050919050565b60006002600083815260200190815260200160002060009054906101000a900473ffffffffffffffffffffffffffffffffffffffff169050919050565b808061198f5750600073ffffffffffffffffffffffffffffffffffffffff168273ffffffffffffffffffffffffffffffffffffffff1614155b15611ac357600061199f84611014565b9050600073ffffffffffffffffffffffffffffffffffffffff168373ffffffffffffffffffffffffffffffffffffffff1614158015611a0a57508273ffffffffffffffffffffffffffffffffffffffff168173ffffffffffffffffffffffffffffffffffffffff1614155b8015611a1d5750611a1b8184610e6a565b155b15611a5f57826040517fa9fbf51f000000000000000000000000000000000000000000000000000000008152600401611a569190612ba1565b60405180910390fd5b8115611ac157838573ffffffffffffffffffffffffffffffffffffffff168273ffffffffffffffffffffffffffffffffffffffff167f8c5be1e5ebec7d5bd14f71427d1e84f3dd0314c0f7b2291e5b200ac8c7c3b92560405160405180910390a45b505b836004600085815260200190815260200160002060006101000a81548173ffffffffffffffffffffffffffffffffffffffff021916908373ffffffffffffffffffffffffffffffffffffffff16021790555050505050565b600080611b29858585611eda565b9050600073ffffffffffffffffffffffffffffffffffffffff168173ffffffffffffffffffffffffffffffffffffffff1603611b6d57611b68846120f4565b611bac565b8473ffffffffffffffffffffffffffffffffffffffff168173ffffffffffffffffffffffffffffffffffffffff1614611bab57611baa818561213d565b5b5b600073ffffffffffffffffffffffffffffffffffffffff168573ffffffffffffffffffffffffffffffffffffffff1603611bee57611be984612228565b611c2d565b8473ffffffffffffffffffffffffffffffffffffffff168173ffffffffffffffffffffffffffffffffffffffff1614611c2c57611c2b85856122f9565b5b5b809150509392505050565b606060006001611c4784612384565b01905060008167ffffffffffffffff811115611c6657611c65612dca565b5b6040519080825280601f01601f191660200182016040528015611c985781602001600182028036833780820191505090505b509050600082602001820190505b600115611cfb578080600190039150507f3031323334353637383961626364656600000000000000000000000000000000600a86061a8153600a8581611cef57611cee6136a2565b5b04945060008503611ca6575b819350505050919050565b80600a60008481526020019081526020016000209081611d26919061387d565b507ff8e1a15aba9398e019f0b49df1a4fde98ee17ae345cb5f6b5e2c27f5033e8ce782604051611d569190612c37565b60405180910390a15050565b611d6c8282610c48565b611daf5780826040517fe2517d3f000000000000000000000000000000000000000000000000000000008152600401611da692919061394f565b60405180910390fd5b5050565b611dbd83836124d7565b611dd2611dc86110d9565b60008585856115db565b505050565b60606040518060800160405280604a81526020016139dc604a9139905090565b6060611e0282611014565b506000611e0d611dd7565b90506000815111611e2d5760405180602001604052806000815250611e58565b80611e3784611c38565b604051602001611e4892919061367e565b6040516020818303038152906040525b915050919050565b60007f7965db0b000000000000000000000000000000000000000000000000000000007bffffffffffffffffffffffffffffffffffffffffffffffffffffffff1916827bffffffffffffffffffffffffffffffffffffffffffffffffffffffff19161480611ed35750611ed2826125d0565b5b9050919050565b600080611ee684611919565b9050600073ffffffffffffffffffffffffffffffffffffffff168373ffffffffffffffffffffffffffffffffffffffff1614611f2857611f27818486612631565b5b600073ffffffffffffffffffffffffffffffffffffffff168173ffffffffffffffffffffffffffffffffffffffff1614611fb957611f6a600085600080611956565b6001600360008373ffffffffffffffffffffffffffffffffffffffff1673ffffffffffffffffffffffffffffffffffffffff168152602001908152602001600020600082825403925050819055505b600073ffffffffffffffffffffffffffffffffffffffff168573ffffffffffffffffffffffffffffffffffffffff161461203c576001600360008773ffffffffffffffffffffffffffffffffffffffff1673ffffffffffffffffffffffffffffffffffffffff168152602001908152602001600020600082825401925050819055505b846002600086815260200190815260200160002060006101000a81548173ffffffffffffffffffffffffffffffffffffffff021916908373ffffffffffffffffffffffffffffffffffffffff160217905550838573ffffffffffffffffffffffffffffffffffffffff168273ffffffffffffffffffffffffffffffffffffffff167fddf252ad1be2c89b69c2b068fc378daa952ba7f163c4a11628f55a4df523b3ef60405160405180910390a4809150509392505050565b6008805490506009600083815260200190815260200160002081905550600881908060018154018082558091505060019003906000526020600020016000909190919091505550565b600061214883610b8e565b90506000600760008481526020019081526020016000205490506000600660008673ffffffffffffffffffffffffffffffffffffffff1673ffffffffffffffffffffffffffffffffffffffff16815260200190815260200160002090508282146121f45760008160008581526020019081526020016000205490508082600085815260200190815260200160002081905550826007600083815260200190815260200160002081905550505b6007600085815260200190815260200160002060009055806000848152602001908152602001600020600090555050505050565b6000600160088054905061223c9190613978565b905060006009600084815260200190815260200160002054905060006008838154811061226c5761226b6134b5565b5b90600052602060002001549050806008838154811061228e5761228d6134b5565b5b9060005260206000200181905550816009600083815260200190815260200160002081905550600960008581526020019081526020016000206000905560088054806122dd576122dc6139ac565b5b6001900381819060005260206000200160009055905550505050565b6000600161230684610b8e565b6123109190613978565b905081600660008573ffffffffffffffffffffffffffffffffffffffff1673ffffffffffffffffffffffffffffffffffffffff168152602001908152602001600020600083815260200190815260200160002081905550806007600084815260200190815260200160002081905550505050565b600080600090507a184f03e93ff9f4daa797ed6e38ed64bf6a1f01000000000000000083106123e2577a184f03e93ff9f4daa797ed6e38ed64bf6a1f01000000000000000083816123d8576123d76136a2565b5b0492506040810190505b6d04ee2d6d415b85acef8100000000831061241f576d04ee2d6d415b85acef81000000008381612415576124146136a2565b5b0492506020810190505b662386f26fc10000831061244e57662386f26fc100008381612444576124436136a2565b5b0492506010810190505b6305f5e1008310612477576305f5e100838161246d5761246c6136a2565b5b0492506008810190505b612710831061249c576127108381612492576124916136a2565b5b0492506004810190505b606483106124bf57606483816124b5576124b46136a2565b5b0492506002810190505b600a83106124ce576001810190505b80915050919050565b600073ffffffffffffffffffffffffffffffffffffffff168273ffffffffffffffffffffffffffffffffffffffff16036125495760006040517f64a0ae920000000000000000000000000000000000000000000000000000000081526004016125409190612ba1565b60405180910390fd5b6000612557838360006110f3565b9050600073ffffffffffffffffffffffffffffffffffffffff168173ffffffffffffffffffffffffffffffffffffffff16146125cb5760006040517f73c6ac6e0000000000000000000000000000000000000000000000000000000081526004016125c29190612ba1565b60405180910390fd5b505050565b6000634906490660e01b7bffffffffffffffffffffffffffffffffffffffffffffffffffffffff1916827bffffffffffffffffffffffffffffffffffffffffffffffffffffffff1916148061262a5750612629826126f5565b5b9050919050565b61263c83838361276f565b6126f057600073ffffffffffffffffffffffffffffffffffffffff168373ffffffffffffffffffffffffffffffffffffffff16036126b157806040517f7e2732890000000000000000000000000000000000000000000000000000000081526004016126a89190612c37565b60405180910390fd5b81816040517f177e802f0000000000000000000000000000000000000000000000000000000081526004016126e7929190613415565b60405180910390fd5b505050565b60007f780e9d63000000000000000000000000000000000000000000000000000000007bffffffffffffffffffffffffffffffffffffffffffffffffffffffff1916827bffffffffffffffffffffffffffffffffffffffffffffffffffffffff19161480612768575061276782612830565b5b9050919050565b60008073ffffffffffffffffffffffffffffffffffffffff168373ffffffffffffffffffffffffffffffffffffffff161415801561282757508273ffffffffffffffffffffffffffffffffffffffff168473ffffffffffffffffffffffffffffffffffffffff1614806127e857506127e78484610e6a565b5b8061282657508273ffffffffffffffffffffffffffffffffffffffff1661280e8361109c565b73ffffffffffffffffffffffffffffffffffffffff16145b5b90509392505050565b60007f80ac58cd000000000000000000000000000000000000000000000000000000007bffffffffffffffffffffffffffffffffffffffffffffffffffffffff1916827bffffffffffffffffffffffffffffffffffffffffffffffffffffffff191614806128fb57507f5b5e139f000000000000000000000000000000000000000000000000000000007bffffffffffffffffffffffffffffffffffffffffffffffffffffffff1916827bffffffffffffffffffffffffffffffffffffffffffffffffffffffff1916145b8061290b575061290a82612912565b5b9050919050565b60007f01ffc9a7000000000000000000000000000000000000000000000000000000007bffffffffffffffffffffffffffffffffffffffffffffffffffffffff1916827bffffffffffffffffffffffffffffffffffffffffffffffffffffffff1916149050919050565b6000604051905090565b600080fd5b600080fd5b60007fffffffff0000000000000000000000000000000000000000000000000000000082169050919050565b6129c581612990565b81146129d057600080fd5b50565b6000813590506129e2816129bc565b92915050565b6000602082840312156129fe576129fd612986565b5b6000612a0c848285016129d3565b91505092915050565b60008115159050919050565b612a2a81612a15565b82525050565b6000602082019050612a456000830184612a21565b92915050565b600081519050919050565b600082825260208201905092915050565b60005b83811015612a85578082015181840152602081019050612a6a565b60008484015250505050565b6000601f19601f8301169050919050565b6000612aad82612a4b565b612ab78185612a56565b9350612ac7818560208601612a67565b612ad081612a91565b840191505092915050565b60006020820190508181036000830152612af58184612aa2565b905092915050565b6000819050919050565b612b1081612afd565b8114612b1b57600080fd5b50565b600081359050612b2d81612b07565b92915050565b600060208284031215612b4957612b48612986565b5b6000612b5784828501612b1e565b91505092915050565b600073ffffffffffffffffffffffffffffffffffffffff82169050919050565b6000612b8b82612b60565b9050919050565b612b9b81612b80565b82525050565b6000602082019050612bb66000830184612b92565b92915050565b612bc581612b80565b8114612bd057600080fd5b50565b600081359050612be281612bbc565b92915050565b60008060408385031215612bff57612bfe612986565b5b6000612c0d85828601612bd3565b9250506020612c1e85828601612b1e565b9150509250929050565b612c3181612afd565b82525050565b6000602082019050612c4c6000830184612c28565b92915050565b600080600060608486031215612c6b57612c6a612986565b5b6000612c7986828701612bd3565b9350506020612c8a86828701612bd3565b9250506040612c9b86828701612b1e565b9150509250925092565b6000819050919050565b612cb881612ca5565b8114612cc357600080fd5b50565b600081359050612cd581612caf565b92915050565b600060208284031215612cf157612cf0612986565b5b6000612cff84828501612cc6565b91505092915050565b612d1181612ca5565b82525050565b6000602082019050612d2c6000830184612d08565b92915050565b600080600060608486031215612d4b57612d4a612986565b5b6000612d5986828701612b1e565b9350506020612d6a86828701612cc6565b9250506040612d7b86828701612cc6565b9150509250925092565b60008060408385031215612d9c57612d9b612986565b5b6000612daa85828601612cc6565b9250506020612dbb85828601612bd3565b9150509250929050565b600080fd5b7f4e487b7100000000000000000000000000000000000000000000000000000000600052604160045260246000fd5b612e0282612a91565b810181811067ffffffffffffffff82111715612e2157612e20612dca565b5b80604052505050565b6000612e3461297c565b9050612e408282612df9565b919050565b600067ffffffffffffffff821115612e6057612e5f612dca565b5b602082029050602081019050919050565b600080fd5b6000612e89612e8484612e45565b612e2a565b90508083825260208201905060208402830185811115612eac57612eab612e71565b5b835b81811015612ed55780612ec18882612cc6565b845260208401935050602081019050612eae565b5050509392505050565b600082601f830112612ef457612ef3612dc5565b5b8135612f04848260208601612e76565b91505092915050565b60008060408385031215612f2457612f23612986565b5b6000612f3285828601612bd3565b925050602083013567ffffffffffffffff811115612f5357612f5261298b565b5b612f5f85828601612edf565b9150509250929050565b600081519050919050565b600082825260208201905092915050565b6000819050602082019050919050565b612f9e81612ca5565b82525050565b6000612fb08383612f95565b60208301905092915050565b6000602082019050919050565b6000612fd482612f69565b612fde8185612f74565b9350612fe983612f85565b8060005b8381101561301a5781516130018882612fa4565b975061300c83612fbc565b925050600181019050612fed565b5085935050505092915050565b600060208201905081810360008301526130418184612fc9565b905092915050565b60006020828403121561305f5761305e612986565b5b600061306d84828501612bd3565b91505092915050565b61307f81612a15565b811461308a57600080fd5b50565b60008135905061309c81613076565b92915050565b600080604083850312156130b9576130b8612986565b5b60006130c785828601612bd3565b92505060206130d88582860161308d565b9150509250929050565b600080604083850312156130f9576130f8612986565b5b600061310785828601612b1e565b925050602061311885828601612cc6565b9150509250929050565b600080fd5b600067ffffffffffffffff82111561314257613141612dca565b5b61314b82612a91565b9050602081019050919050565b82818337600083830152505050565b600061317a61317584613127565b612e2a565b90508281526020810184848401111561319657613195613122565b5b6131a1848285613158565b509392505050565b600082601f8301126131be576131bd612dc5565b5b81356131ce848260208601613167565b91505092915050565b600080600080608085870312156131f1576131f0612986565b5b60006131ff87828801612bd3565b945050602061321087828801612bd3565b935050604061322187828801612b1e565b925050606085013567ffffffffffffffff8111156132425761324161298b565b5b61324e878288016131a9565b91505092959194509250565b6000806040838503121561327157613270612986565b5b600061327f85828601612bd3565b925050602061329085828601612bd3565b9150509250929050565b600080fd5b60008083601f8401126132b5576132b4612dc5565b5b8235905067ffffffffffffffff8111156132d2576132d161329a565b5b6020830191508360208202830111156132ee576132ed612e71565b5b9250929050565b60008060006040848603121561330e5761330d612986565b5b600061331c86828701612b1e565b935050602084013567ffffffffffffffff81111561333d5761333c61298b565b5b6133498682870161329f565b92509250509250925092565b7f4e487b7100000000000000000000000000000000000000000000000000000000600052602260045260246000fd5b6000600282049050600182168061339c57607f821691505b6020821081036133af576133ae613355565b5b50919050565b60006060820190506133ca6000830186612b92565b6133d76020830185612c28565b6133e46040830184612b92565b949350505050565b60006040820190506134016000830185612c28565b61340e6020830184612d08565b9392505050565b600060408201905061342a6000830185612b92565b6134376020830184612c28565b9392505050565b7f4e487b7100000000000000000000000000000000000000000000000000000000600052601160045260246000fd5b600061347882612afd565b91507fffffffffffffffffffffffffffffffffffffffffffffffffffffffffffffffff82036134aa576134a961343e565b5b600182019050919050565b7f4e487b7100000000000000000000000000000000000000000000000000000000600052603260045260246000fd5b600081905092915050565b60006134fa82612a4b565b61350481856134e4565b9350613514818560208601612a67565b80840191505092915050565b7f2f56000000000000000000000000000000000000000000000000000000000000600082015250565b60006135566002836134e4565b915061356182613520565b600282019050919050565b600061357882856134ef565b915061358382613549565b915061358f82846134ef565b91508190509392505050565b600081519050919050565b600082825260208201905092915050565b60006135c28261359b565b6135cc81856135a6565b93506135dc818560208601612a67565b6135e581612a91565b840191505092915050565b60006080820190506136056000830187612b92565b6136126020830186612b92565b61361f6040830185612c28565b818103606083015261363181846135b7565b905095945050505050565b60008151905061364b816129bc565b92915050565b60006020828403121561366757613666612986565b5b60006136758482850161363c565b91505092915050565b600061368a82856134ef565b915061369682846134ef565b91508190509392505050565b7f4e487b7100000000000000000000000000000000000000000000000000000000600052601260045260246000fd5b60008190508160005260206000209050919050565b60006020601f8301049050919050565b600082821b905092915050565b6000600883026137337fffffffffffffffffffffffffffffffffffffffffffffffffffffffffffffffff826136f6565b61373d86836136f6565b95508019841693508086168417925050509392505050565b6000819050919050565b600061377a61377561377084612afd565b613755565b612afd565b9050919050565b6000819050919050565b6137948361375f565b6137a86137a082613781565b848454613703565b825550505050565b600090565b6137bd6137b0565b6137c881848461378b565b505050565b5b818110156137ec576137e16000826137b5565b6001810190506137ce565b5050565b601f82111561383157613802816136d1565b61380b846136e6565b8101602085101561381a578190505b61382e613826856136e6565b8301826137cd565b50505b505050565b600082821c905092915050565b600061385460001984600802613836565b1980831691505092915050565b600061386d8383613843565b9150826002028217905092915050565b61388682612a4b565b67ffffffffffffffff81111561389f5761389e612dca565b5b6138a98254613384565b6138b48282856137f0565b600060209050601f8311600181146138e757600084156138d5578287015190505b6138df8582613861565b865550613947565b601f1984166138f5866136d1565b60005b8281101561391d578489015182556001820191506020850194506020810190506138f8565b8683101561393a5784890151613936601f891682613843565b8355505b6001600288020188555050505b505050505050565b60006040820190506139646000830185612b92565b6139716020830184612d08565b9392505050565b600061398382612afd565b915061398e83612afd565b92508282039050818111156139a6576139a561343e565b5b92915050565b7f4e487b7100000000000000000000000000000000000000000000000000000000600052603160045260246000fdfe68747470733a2f2f706572736f6e616c2d69787165343231302e6f757473797374656d73636c6f75642e636f6d2f4e46544170692f726573742f4c6f79616c7479546f6b656e5552492f68747470733a2f2f7a7a6f2e6f757473797374656d73636c6f75642e636f6d2f495046534f757473797374656d732f726573742f4d657461646174615552492f456e74697479546f6b656e4d65746164617461555249a264697066735822122034376a42dcdbac236717e53a4ba1c5fd3e65b718ba8b9573380e59e00b904a2664736f6c634300081b0033",
  "linkReferences": {},
  "deployedLinkReferences": {}
}